:040000008031202803
:100008007E14803120007F08F7002100911D1328FD
:100018002000911D132882314F2280311B28210096
:10002800111F1B282000111F1B2883312323770849
:100038002000FF007E10090080312228F801F90114
:10004800FA0120308400003085001730FE000030AF
:10005800FF008231E3228031333084008130850013
:1000680070308600273087000030FF0080308231F2
:10007800EF228031833126238031FB00833127230F
:100088008031FC0083312823BC007E10200082319F
:10009800FB2A112900308231A32220003C08860067
:1000A80087013708C03F3808C13F0230BB003B0812
:1000B800BC07A201A20A080001308231A322200055
:1000C8003C08860087013708C03F3808C13F023026
:1000D800BB003B08BC070230BB003B08A20008007D
:1000E80002308231A32220003C08860087013708AD
:1000F800C03F3808C13F0230BB003B08BC07033093
:10010800BB003B08A200080003308231A322200074
:100118003C08860087013708C03F3808C13F0230D5
:10012800BB003B08BC070430BB003B08A20008002A
:1001380004308231A32220003C088600870137085A
:10014800C03F3808C13F0230BB003B08BC070E3037
:10015800BB003B08A20008000E308231A322200019
:100168003C08860087013708C03F3808C13F023085
:10017800BB003B08BC070F30BB003B08A2000800CF
:100188000F308231A32220003C08860087013708FF
:10019800C03F3808C13F0230BB003B08BC071030E5
:1001A800BB003B08A200080010308231A3222000C7
:1001B8003C08860087013708C03F3808C13F023035
:1001C800BB003B08BC071130BB003B08A20008007D
:1001D80011308231A32220003C08860087013708AD
:1001E800C03F3808C13F0230BB003B08BC07123093
:1001F800BB003B08A200080012308231A322200075
:100208003C08860087013708C03F3808C13F2330C3
:10021800BB003B08BC00A201080020002208003AED
:1002280003194E28013A03196028033A0319742860
:10023800013A03198828073A03199C280A3A03192E
:10024800B028013A0319C4281F3A0319D828013ADB
:100258000319EC28033A031900293229080000344D
:1002680001340234033404340534063407340834C2
:1002780009340A340B340C340D340E340F34103472
:100288001134123413341434153416341734183422
:1002980019341A341B341C341D341E341F342034D2
:1002A8002134223423342434253426342734283482
:1002B80029342A342B342C342D342E342F34303432
:1002C80031343234333434343534363437343834E2
:1002D80039343A343B343C343D343E343F34403492
:1002E8004134423443344434453446344734483442
:1002F80049344A344B344C344D344E344F345034F2
:1003080051345234533454345534563457345834A1
:1003180059345A345B345C345D345E345F34603451
:100328006134623463346434653466346734683401
:1003380069346A346B346C346D346E346F347034B1
:100348007134723473347434753476347734783461
:1003580079347A347B347C347D347E347F342200A3
:100368008C01FF3021008C003F3023008C002400DA
:100378008C0122008D01FF3021008D003F302300C9
:100388008D0024008D01033022008E00FF302100F3
:100398008E00FC3023008E0024008E0108302100DE
:1003A8009000240090012100951700308B1B01302C
:1003B8002000B7008B1355303C008F00AA308F0007
:1003C8000F102008E0391038A0003D002008E0395F
:1003D8001038A0003C002108E0391138A1003D0088
:1003E8002108E0391138A10055303C008F00AA30AF
:1003F8008F000F142000371C032A8B1708008B135B
:100408000800F400402AF90108007B08F20072088D
:10041800F800342A7B08F2007208FA00A5307A0640
:10042800031901007808703EF200F3012730F33D0C
:1004380072088600730887007B0881000130F2008B
:100448007208F80780307802031C342AF801342A2D
:100458007908003A03190E2A013A0319092A342A9D
:10046800F901080003302000A0000030A10082310B
:10047800BF222400910008007408003A0319072AD3
:10048800013A0319362A033A03192C2A013A0319A7
:100498004E2A4E2A08005530F5007508F60020004F
:1004A800911124001108F5007508F600141D632A3F
:1004B800941A161F612A0330762A0130762A941A74
:1004C8006C2A02302000A0000030A1000030762AFB
:1004D8007608F5007508FB0004302000A000003005
:1004E800A1000230823105222400151608002000E0
:1004F800B801B9013908803AB70080303702031DC6
:10050800872A0A3038020318A02A20003835233EEB
:10051800860087010030C03FC13F0130B807003076
:10052800B93D3908803AB70080303702031D9E2A4A
:100538000A303802031C892A2000A2010800200082
:10054800BA003A08B900B90DB90D21001D082000FC
:1005580039068339390621009D001D140032210017
:100568009D149D18B52A1C082000B80021001B08FE
:100578002000B70008007C08860087010108F00009
:100588007008F1000130F0007008FC077C08373A69
:10059800031DD22A2330F0007008FC0071080800FF
:1005A800240094012630950096019701FE309300AF
:1005B800103092002000911121009115080064006C
:1005C800800101310130FE020030FF3B7F087E04CC
:1005D80003190034E42AFE0012001E000130FE0256
:1005E8000030FF3B7F087E0403190034F02A833172
:1005F800072382318B170B1782317B22823180319E
:100608004D208231032B83311D2383318131B32166
:1006180083318331132383318231D422080001309E
:1006280021009D0080309E009F019B019C011117B5
:1006380008006030210099009A0198010800200004
:0A0648001113080055342334233445
:020000040001F9
:04000E00E4FFFFDF2D
:00000001FF
