:020000040000fa
:080000000002040000000000f2
:020000040000fa
:100008009a0200009a0200009a0200009a02000078
:100018009a0200009a0200009a0200009a02000068
:100028009a0200009a0200009a020000b00700003d
:100038009a0200009a0200009a0200009a02000048
:100048009a0200009a0200009a0200009a02000038
:100058009a0200009a0200009a0200009a02000028
:100068009a0200009a0200009a0200009a02000018
:100078009a0200009a0200009a0200009a02000008
:100088009a0200009a0200009a0200009a020000f8
:100098009a0200009a0200009a0200009a020000e8
:1000a8009a0200009a0200009a0200009a020000d8
:1000b8009a0200009a0200009a0200009a020000c8
:1000c8009a0200009a0200009a0200009a020000b8
:1000d8009a0200009a0200009a0200009a020000a8
:1000e8009a020000c80200009a0200009a0200006a
:1000f8009a0200009a0200009a0200009a02000088
:100108009a0200009a0200009a0200009a02000077
:100118009a0200009a0200009a0200009a02000067
:100128009a0200009a0200009a0200009a02000057
:100138009a0200009a0200009a0200009a02000047
:100148009a0200009a0200009a0200009a02000037
:100158009a0200009a0200009a0200009a02000027
:100168009a0200009a0200009a0200009a02000017
:100178009a0200009a0200009a0200009a02000007
:100188009a0200009a0200009a0200009a020000f7
:100198009a0200009a0200009a0200009a020000e7
:1001a8009a0200009a0200009a0200009a020000d7
:1001b8009a0200009a0200009a0200009a020000c7
:1001c8009a0200009a0200009a0200009a020000b7
:1001d8009a0200009a0200009a0200009a020000a7
:1001e8009a0200009a0200009a0200009a02000097
:0801f8009a0200009a020000c7
:020000040000fa
:100208009a0200009a0200009a0200009a02000076
:100218009a0200009a0200009a0200009a02000066
:100228009a0200009a0200009a020000b00700003b
:100238009a0200009a0200009a0200009a02000046
:100248009a0200009a0200009a0200009a02000036
:100258009a0200009a0200009a0200009a02000026
:100268009a0200009a0200009a0200009a02000016
:100278009a0200009a0200009a0200009a02000006
:100288009a0200009a0200009a0200009a020000f6
:100298009a0200009a0200009a0200009a020000e6
:1002a8009a0200009a0200009a0200009a020000d6
:1002b8009a0200009a0200009a0200009a020000c6
:1002c8009a0200009a0200009a0200009a020000b6
:1002d8009a0200009a0200009a0200009a020000a6
:1002e8009a020000c80200009a0200009a02000068
:1002f8009a0200009a0200009a0200009a02000086
:100308009a0200009a0200009a0200009a02000075
:100318009a0200009a0200009a0200009a02000065
:100328009a0200009a0200009a0200009a02000055
:100338009a0200009a0200009a0200009a02000045
:100348009a0200009a0200009a0200009a02000035
:100358009a0200009a0200009a0200009a02000025
:100368009a0200009a0200009a0200009a02000015
:100378009a0200009a0200009a0200009a02000005
:100388009a0200009a0200009a0200009a020000f5
:100398009a0200009a0200009a0200009a020000e5
:1003a8009a0200009a0200009a0200009a020000d5
:1003b8009a0200009a0200009a0200009a020000c5
:1003c8009a0200009a0200009a0200009a020000b5
:1003d8009a0200009a0200009a0200009a020000a5
:1003e8009a0200009a0200009a0200009a02000095
:0803f8009a0200009a020000c5
:020000040000fa
:100400004f8620000e7f22000e01880000000000b1
:10041000000020000000e000020032000001200087
:10042000200288000c00070060ac200001002000c2
:1004300011000700000020000000e0000200320070
:100440000000020000000000c409020000000000db
:100450000040da000000fe004440a9000000200037
:100460000000e0000300320000002000a00188002e
:100470004440a80000000600910188008000780038
:100480000000eb0015003700e280400032a0b4000d
:100490009101ba00e280400032a0b4009102ba009b
:1004a000e280400032a0b4000002eb00472bde00e7
:1004b000f507b200602ce10004003a000059eb009f
:1004c0008301e900fdff3e00040037006128e100e0
:1004d000010032000082eb00040007001101ba00a5
:1004e0000200e000e8ff3a00000006003159ba00bf
:1004f0008301e9000c0032002159ba008301e900b0
:10050000080032000400e00003003a00e2804000ee
:1005100032a0b400f5ff370011d9ba008301e90019
:10052000faff3a008100e800e180400032a0b40008
:0c053000000006000040da000000fe00a1
:020000040000fa
:10053c000000fa0000002800b01088001822ef001c
:10054c0000012000060107000000eb00f800070086
:10055c000028ef000000eb00cd0007000000eb00ce
:10056c00d70007008a20a9009a20a8000080fa0072
:10057c00000006000000fa00edff07000080fa0002
:10058c00000006003600f800809fbe00829fbe006f
:10059c00849fbe00869fbe000200fa0000408000cf
:1005ac00e20f50009a003200e20f500003003900b5
:1005bc00e30f500089003200a7003700b110800013
:1005cc0000402000008060000000e00005003a00c0
:1005dc00c110800000022000008060000000e000dc
:1005ec000a003200b110800000082000008060007a
:1005fc000000e00021003200c1108000002020002b
:10060c00008060000000e0001c003200c010800080
:10061c00640060000000e0000b003a0010002000b5
:10062c000f01070016e8b7001000200000408800fa
:10063c0016c8bf000004e0003800320080108000b3
:10064c00004f7800360037000000eb000401070073
:10065c00204080000000e0000500320020408000b7
:10066c00104078000080fb00901088001782a800d2
:10067c00200020000040880029003700b1108000c5
:10068c0000402000008060000000e00024003200e8
:10069c00c110800000022000008060000000e0001b
:1006ac001f003a00c0108000640060000000e000f1
:1006bc0004003a000a68ef00300020000040880077
:1006cc00130037000ac8bf000004e0000d00320020
:1006dc000000eb00e2000700204080000000e0007a
:1006ec000500320020408000104078000080fb00a4
:1006fc00901088001782a80020002000004088007d
:10070c00030037000a68ef0030002000004088002a
:10071c0080108000004f78000100370000000000be
:10072c0000408000e10f50004c003a00c1108000e6
:10073c0000022000008060000000e0004900320050
:10074c00c110800000042000008060000000e00068
:10075c001e003a00104080000000e000170032003c
:10076c0081108000f00f2000808f50000f003200ad
:10077c00904080008110800001417800a18520000c
:10078c0082707800904080000000e8009040880063
:10079c0090408000e50f5000040034007040800051
:1007ac000000e800704088001228ef001040800024
:1007bc0081108000814078000148780020002000e2
:1007cc00a700070016e8b70029003700801080004a
:1007dc00004f780018c2a900250037003000200017
:1007ec009f00070016e8b70010c0b3000ae8b70076
:1007fc0016c8bf000004e000020032008010800028
:10080c00004f7800100020000040880018003700ce
:10081c00c110800000002800008060000000e00093
:10082c000b003a000000eb008d0007002040800018
:10083c000000e0000d0032002040800010407800e5
:10084c000080fb00901088001782a8000800370079
:10085c000028ef0006003700ffff37000000000003
:10086c00030037000000000001003700000000000a
:10087c008a20a9000080fa004f03be004f02be0080
:10088c004f01be004f00be003600f90000400600cc
:10089c000200fa00000f78009e00780021408800ca
:1008ac000080fa00000006000200fa00000f780039
:1008bc001e007800f6ff07000080fa00000006001a
:1008cc000200fa00000f78009e00780011408800aa
:1008dc000080fa00000006000200fa00000f780009
:1008ec001e007800f6ff07000080fa0000000600ea
:1008fc000000fa00204080000080fa000000060092
:10090c000000fa00faff07000080fa000000060061
:10091c000000fa00104080000080fa000000060081
:10092c000000fa00faff07000080fa000000060041
:10093c000200fa00000f78009e007800e110880099
:10094c000080fa00000006000200fa00000f780098
:10095c001e007800f6ff07000080fa000000060079
:10096c000200fa00000f7800f00720009e007800cb
:10097c00808f5000020036001742a800010037009b
:10098c001742a9000028ef009e007800d1108800c3
:10099c000080fa00000006000200fa00000f780048
:1009ac001e007800eeff07000080fa000000060031
:1009bc000000fa00204080000000e0000600320039
:1009cc0020408000104078000080fb0090108800d0
:1009dc001782a80001003700000000000080fa0018
:1009ec00000006000000fa00104080000000e0004b
:1009fc001800320081108000f00f2000808f500012
:100a0c000f0032009040800081108000014178007e
:100a1c00a185200082707800904080000000e800e2
:100a2c009040880090408000e50f50000400340096
:100a3c00704080000000e800704088001228ef0031
:100a4c0010408000811080008140780001487800bf
:100a5c0001003700000000000080fa0000000600d2
:100a6c000200fa00000f78001e007800e10f500021
:100a7c000d003200e10f500003003900e20f50006e
:100a8c000f0032002e00370031408000a081200082
:100a9c00008040007eff0700304080000000e8002e
:100aac0030408800260037000828ef0010c0b30043
:100abc0015e8b7004081200081ff070020003700b7
:100acc0015c8bf000004e000160032004040800052
:100adc000000e00008003a0014c8bf000080fb00d2
:100aec004800dd0030408800404080000000e800f5
:100afc00404088001200370040408000e10f500059
:100b0c000e003a0014c8bf008080fb00304080000b
:100b1c0001007000304088000828ef001568ef00d5
:100b2c0007003700304080004281200012417800dd
:100b3c00a1812000827078000100370000000000c5
:100b4c0010c0b3000080fa00000006000000fa009c
:100b5c0060002100800c88009221ef0000712200bf
:100b6c00a00c880000402000b00c88009821ef00f9
:100b7c00800c800000407800674060000080fb0023
:100b8c00c04088000080fa00000006000000fa0057
:100b9c00eeff07000080fa00000006000000fa00db
:100bac0020048000640060000000e00001003200be
:100bbc008440a9000080fa00000006000000fa0042
:100bcc00f6ff07000080fa00000006000000fa00a3
:100bdc00c040800000407800674060000080fb004f
:100bec0067006000820c800081ff2f008100610093
:100bfc0001007000800c88000080fa0000000600e4
:100c0c000000fa00f1ff07000080fa000000060067
:100c1c000000fa00800c80000000a1000010a10070
:100c2c000020a100800c88000080fa000000060063
:100c3c000000fa00f6ff07000080fa000000060032
:100c4c000200fa00000f78009e007800b10c8800ba
:100c5c000080fa00000006000200fa00000f780085
:100c6c001e007800f6ff07000080fa000000060066
:100c7c000400fa00000f7800110798009e0078001d
:100c8c00b10c88009e009000a10c88000080fa0036
:100c9c00000006000400fa00000f7800110798000d
:100cac009e0090001e007800f1ff07000080fa0003
:100cbc00000006000400fa00000f780011079800ed
:100ccc009e007800b10c88009e009000a10c88005a
:100cdc000080fa00000006000400fa00000f780003
:100cec00110798009e0090001e007800f1ff07008d
:100cfc000080fa00000006000400fa00000f7800e3
:100d0c00110798009e007800b10c88009e0090009e
:100d1c00a10c88000080fa00000006000400fa0014
:100d2c00000f7800110798009e0090001e007800bc
:100d3c00f1ff07000080fa00000006000000fa0036
:100d4c00200480004200de00614060000080fb0057
:100d5c0000f0a7000000ea000000ea004f00de00ef
:100d6c00004078000080fa00000006000000fa0045
:100d7c00f2ff07000080fa00000006000400fa00f1
:100d8c00100798001e009000e10f50000f00320079
:100d9c00e10f500003003900e20f50001500320043
:100dac001e003700800c80004400de0061406000b3
:100dbc000080fb0000f0a7000000ea000000ea0041
:100dcc004f00de00004f780014003700800c8000cc
:100ddc004500de00614060000080fb0000f0a700d1
:100dec000000ea000000ea004f00de00004f78002f
:100dfc000a003700800c80004600de006140600075
:100e0c000080fb0000f0a7000000ea000000ea00f0
:100e1c004f00de00004f7800000000001e407800fc
:100e2c000080fa00000006000200fa00000f7800b3
:100e3c001e007800d1ff07000080fa0000000600b9
:100e4c000200fa00000f78001e007800e10f50003d
:100e5c0007003200e10f500003003900e20f500090
:100e6c0005003200060037009081a900040037000d
:100e7c0090a1a9000200370090c1a9000000000059
:100e8c000080fa00000006000200fa00000f780053
:100e9c001e007800eaff07000080fa000000060040
:100eac000000fa0092c1a8000080fa0000000600c1
:100ebc000000fa00900c80004600de0061406000eb
:100ecc000080fb0000f0a7000000ea000000ea0030
:100edc004f00de00004078000080fa0000000600a1
:100eec000000fa00f2ff07000080fa000000060084
:100efc000000fa0092c1a9000080fa000000060070
:100f0c000000fa00faff07000080fa00000006005b
:100f1c000000fa0000012800200888000021ef00e2
:100f2c0000712200100888008460a9009460a80059
:100f3c00008620008040eb00014878000080fa0019
:100f4c00000006000000fa00f1ff07000080fa0024
:100f5c00000006003600f800809fbe00829fbe0095
:100f6c00849fbe00869fbe000000fa003e00070072
:100f7c0010862000104078008040e8001086200089
:100f8c00014878000086200011c0b30001487800a9
:100f9c008460a9000080fa004f03be004f02be001f
:100fac004f01be004f00be003600f90000400600a5
:100fbc000200fa00000f78009e00780011088800eb
:100fcc00008620008040eb00014878000080fa0089
:100fdc00000006000200fa00000f78001e007800e6
:100fec00f3ff07000080fa00000006000000fa0082
:100ffc00100880000080fa00000006000000fa00d3
:10100c00faff07000080fa00000006000200fa0058
:10101c00000f78009e0078000108880000862000f0
:10102c008040eb00014878000080fa0000000600c8
:10103c000200fa00000f78001e007800f3ff070092
:10104c000080fa00000006000000fa000008800092
:10105c000080fa00000006000000fa00faff07000a
:10106c000080fa00000006000000fa0060408000da
:10107c000000e800604088000080fa0000000600d4
:10108c000000fa00008620008040eb000148780048
:10109c009460a80005e1a8000080fa00000006009a
:1010ac000000fa00f6ff07000080fa0000000600be
:1010bc000000fa0005e1a9009460a9000080fa0084
:1010cc00000006000000fa00f9ff07000080fa009b
:1010dc00000006000200fa0000862000104f780085
:1010ec001e4078000004e00003003200008620005f
:1010fc008040eb00014878001e4078000080fa0028
:10110c00000006000000fa00f2ff07000080fa0061
:10111c00000006000000fa00108620001040780045
:10112c000080fa00000006000000fa00f9ff07003a
:10113c000080fa00000006000000fa001086200073
:10114c008040eb00014878000080fa0000000600a7
:10115c000000fa00f8ff07000080fa00000006000b
:10116c000000fa0000002800800888000621ef002b
:10117c000c21ef00208620008040eb000148780015
:10118c000080fa00000006000000fa00f4ff0700df
:10119c000080fa00000006000000fa002104800024
:1011ac0000082000008060000000e0000900320010
:1011bc0030862000104078008040e8003086200007
:1011cc00014878002086200011c0b3000148780047
:1011dc0084e0a9000080fa00000006000000fa007c
:1011ec00edff07000080fa00000006000200fa0084
:1011fc00000f78009e00780061088800208620008f
:10120c008040eb00014878000080fa0000000600e6
:10121c000200fa00000f78001e007800f3ff0700b0
:10122c000080fa00000006000000fa006008800050
:10123c000080fa00000006000000fa00faff070028
:10124c000080fa00000006000200fa00000f78008f
:10125c009e00780031088800208620008040eb003a
:10126c00014878000080fa00000006000200fa0035
:10127c00000f78001e007800f3ff07000080fa00d2
:10128c00000006000000fa00300880000080fa0020
:10129c00000006000000fa00faff07000080fa00c8
:1012ac00000006000000fa00208620008040eb00c1
:1012bc000148780011e1a8000080fa000000060047
:1012cc000000fa00f7ff07000080fa00000006009b
:1012dc000000fa0011e1a9000080fa0000000600ed
:1012ec000000fa00faff07000080fa000000060078
:1012fc000200fa0020862000104f78001e40780073
:10130c000004e00003003200208620008040eb0047
:10131c00014878001e4078000080fa0000000600aa
:10132c000000fa00f2ff07000080fa00000006003f
:10133c000000fa0030862000104078000080fa008f
:10134c00000006000000fa00f9ff07000080fa0018
:10135c00000006000000fa00308620008040eb0000
:10136c00014878000080fa00000006000000fa0036
:10137c00f8ff07000080fa00000006000000fa00e9
:10138c00d200070071000700704080000000e000f0
:10139c00190032000e28ef00a085200010407800c4
:1013ac000080fb00e40f50000c003200e40f5000f2
:1013bc0003003c00e30f5000060032000d00370024
:1013cc00e50f500007003200e60f50000700320016
:1013dc000800370059000700060037005b000700c3
:1013ec000400370036000700020037002700070012
:1013fc00000000004100070010168000640060002f
:10140c000000e000030032002d0007002003200044
:10141c005200070010168000610060000000e00020
:10142c000300320019000700200320004b000700c6
:10143c00c222a8003000200048000700c262a800a9
:10144c003000200045000700c222a9001000200037
:10145c0042000700cae2a800300020003f0007004d
:10146c00c262a900300020003c000700caa2a800fc
:10147c003000200039000700cae2a900300020002b
:10148c0036000700caa2a900bfff37000000fa000f
:10149c0005003700b00c800070004000b00c8800d4
:1014ac00100020002d000700b10c8000f04420003b
:1014bc00808f5000f7ff36000080fa000000060015
:1014cc000000fa0005003700b00c800070005000de
:1014dc00b00c88001000200020000700b10c800028
:1014ec0000162000808f5000f7ff3e0000162000f1
:1014fc00b00c88000080fa00000006000200fa0020
:10150c000000eb00000f780005003700a0852000dc
:10151c001e00400011c0b300014878001e0fe80007
:10152c001e007800e50f5000f8ff34000000eb00bf
:10153c00000f78000080fa00000006000000fa009e
:10154c00cd62a8000080fa00000006000000fa003e
:10155c00cd62a9000080fa00000006000200fa002b
:10156c00000f78000c28ef000000000060408000a5
:10157c009e0f5000fdff35000080fa0000000600b1
:020000040000fa
:10158c001a0800004000000002000000ffffff00ee
:10159c00ffffff00ffffff00ffffff00ffffff004b
:1015ac00ffffff00ffffff00ffffff00ffffff003b
:1015bc00ffffff00ffffff00ffffff00ffffff002b
:1015cc00ffffff00ffffff00ffffff00ffffff001b
:1015dc00ffffff00ffffff00ffffff00ffffff000b
:1015ec00ff000000000800000c00000000000000dc
:1015fc00140800000400000002000000aa01010011
:10160c000000000060080000020000000000000064
:10161c001808000002000000000000006208000032
:10162c0002000000000000005a0800000600000044
:10163c00000000000c080000080000000000000082
:04164c00000000009a
:020000040000fa
:101650000000fa00c422ef005001200000168800ac
:10166000cc22ef00f0312e0040168800300320001d
:1016700060198800113a8000f00b200000816000a2
:101680006004200071052000237420008049780048
:1016900081497800824978005136800000fe2f0091
:1016a000008060002001b30050368800113a8000ad
:1016b000000420000101700060042000710520007a
:1016c000237420008049780081497800824978009d
:1016d0000080fa00000006000000fa000800070081
:1016e000dbff07000b00070094fb07001afd070053
:1016f0000afe07009dfe07000080fa0000000600b9
:101700000000fa0000002300203a88000080fa0060
:10171000000006000000fa00e00580000040a00084
:101720000050a1000060a100e005880020058000b5
:1017300000c0a00000d0a10000e0a10020058800aa
:081740000080fa000000060021
:020000040000fa
:020000040001f9
:0457f000ffff0000b7
:020000040000fa
:020000040001f9
:0457f400fffc0000b6
:020000040000fa
:020000040001f9
:0457f8009ff8000016
:020000040000fa
:020000040001f9
:0457fc007f3f0000eb
:00000001FF
