:020000040000fa
:080000000002040000000000f2
:020000040000fa
:100008009a0200009a0200009a0200009a02000078
:100018009a0200009a0200009a0200009a02000068
:100028009a0200009a0200009a0200000c180000d0
:100038009a0200009a0200009a0200009a02000048
:10004800e41600009a0200009a0200009a020000da
:100058009a0200009a0200009a0200009a02000028
:100068009a0200009a0200009a0200009a02000018
:100078009a0200009a0200009a0200009a02000008
:100088009a0200009a0200009a0200009a020000f8
:100098009a0200009a0200009a0200009a020000e8
:1000a8009a0200009a0200009a0200009a020000d8
:1000b8009a0200009a0200009a0200009a020000c8
:1000c8009a0200009a0200009a0200009a020000b8
:1000d8009a0200009a0200009a0200009a020000a8
:1000e8009a0200006c0a00009a0200009a020000be
:1000f8009a0200009a0200009a0200009a02000088
:100108009a0200009a0200009a0200009a02000077
:100118009a0200009a0200009a0200009a02000067
:100128009a0200009a0200009a0200009a02000057
:100138009a0200009a0200009a0200009a02000047
:100148009a0200009a0200009a0200009a02000037
:100158009a0200009a0200009a0200009a02000027
:100168009a0200009a0200009a0200009a02000017
:100178009a0200009a0200009a0200009a02000007
:100188009a0200009a0200009a0200009a020000f7
:100198009a0200009a0200009a0200009a020000e7
:1001a8009a0200009a0200009a0200009a020000d7
:1001b8009a0200009a0200009a0200009a020000c7
:1001c8009a0200009a0200009a0200009a020000b7
:1001d8009a0200009a0200009a0200009a020000a7
:1001e8009a0200009a0200009a0200009a02000097
:0801f8009a0200009a020000c7
:020000040000fa
:100208009a0200009a0200009a0200009a02000076
:100218009a0200009a0200009a0200009a02000066
:100228009a0200009a0200009a0200000c180000ce
:100238009a0200009a0200009a0200009a02000046
:10024800e41600009a0200009a0200009a020000d8
:100258009a0200009a0200009a0200009a02000026
:100268009a0200009a0200009a0200009a02000016
:100278009a0200009a0200009a0200009a02000006
:100288009a0200009a0200009a0200009a020000f6
:100298009a0200009a0200009a0200009a020000e6
:1002a8009a0200009a0200009a0200009a020000d6
:1002b8009a0200009a0200009a0200009a020000c6
:1002c8009a0200009a0200009a0200009a020000b6
:1002d8009a0200009a0200009a0200009a020000a6
:1002e8009a0200006c0a00009a0200009a020000bc
:1002f8009a0200009a0200009a0200009a02000086
:100308009a0200009a0200009a0200009a02000075
:100318009a0200009a0200009a0200009a02000065
:100328009a0200009a0200009a0200009a02000055
:100338009a0200009a0200009a0200009a02000045
:100348009a0200009a0200009a0200009a02000035
:100358009a0200009a0200009a0200009a02000025
:100368009a0200009a0200009a0200009a02000015
:100378009a0200009a0200009a0200009a02000005
:100388009a0200009a0200009a0200009a020000f5
:100398009a0200009a0200009a0200009a020000e5
:1003a8009a0200009a0200009a0200009a020000d5
:1003b8009a0200009a0200009a0200009a020000c5
:1003c8009a0200009a0200009a0200009a020000b5
:1003d8009a0200009a0200009a0200009a020000a5
:1003e8009a0200009a0200009a0200009a02000095
:0803f8009a0200009a020000c5
:020000040000fa
:100400002f8720000e7f22000e01880000000000d0
:10041000000020000000e000020032000001200087
:10042000200288000c000700c0a12100010020006c
:1004300011000700000020000000e0000200320070
:1004400000000200000000009e0202000000000008
:100450000040da000000fe004440a9000000200037
:100460000000e0000300320000002000a00188002e
:100470004440a80000000600910188008000780038
:100480000000eb0015003700e280400032a0b4000d
:100490009101ba00e280400032a0b4009102ba009b
:1004a000e280400032a0b4000002eb00472bde00e7
:1004b000f507b200602ce10004003a000059eb009f
:1004c0008301e900fdff3e00040037006128e100e0
:1004d000010032000082eb00040007001101ba00a5
:1004e0000200e000e8ff3a00000006003159ba00bf
:1004f0008301e9000c0032002159ba008301e900b0
:10050000080032000400e00003003a00e2804000ee
:1005100032a0b400f5ff370011d9ba008301e90019
:10052000faff3a008100e800e180400032a0b40008
:0c053000000006000040da000000fe00a1
:020000040000fa
:10053c000000fa003c0c0700803821004400070042
:10054c00430c07002000200041000700c262a900f4
:10055c00500020003e000700caa2a9002000200085
:10056c003b000700cae2a900100020003800070079
:10057c00100020003600070025000700440b200067
:10058c00a3002000a20a2000910120000000eb0033
:10059c00bf010700804080000000e0001500320021
:1005ac001028ef0060862000104078000004e00066
:1005bc0010003a00b0862000104078000082fb004a
:1005cc00a0862000104078008081fb0090862000df
:1005dc00104078000081fb008086200010407800dd
:1005ec008080fb0070862000104078000080fb00ab
:1005fc00a7010700caa2a8004006200014000700ab
:10060c00caa2a9002003200011000700e1ff370057
:10061c000200fa000000eb00000f78000500370024
:10062c00608620001e00400011c0b3000148780015
:10063c001e0fe8001e007800e50f5000f8ff340094
:10064c000000eb00000f78000080fa0000000600ac
:10065c000200fa00000f78000c28ef0000000000e8
:10066c00604080009e0f5000fdff34000080fa00b7
:10067c00000006000200fa00000f78000c28ef00c2
:10068c0000000000604080009e0f5000fdff340011
:10069c000080fa00000006000200fa00000f78004b
:1006ac001e007800e50f500034003200e50f5000ba
:1006bc000c003c00e20f50001e003200e20f500014
:1006cc0003003c00e10f50000f00320055003700d2
:1006dc00e30f50001c003200e40f50001f003200ea
:1006ec0050003700e70f500034003200e70f500085
:1006fc002a003500e80f500034003200e90f50009a
:10070c003d00320047003700cae2a900100020006b
:10071c00cfff0700caa2a90010002000ccff0700e1
:10072c00c222a80010002000c9ff0700c262a90065
:10073c003c003700c222a90010002000c4ff0700b3
:10074c00c262a80037003700c222a80010002000a7
:10075c00bfff0700c262a80032003700c222a90006
:10076c0010002000baff0700c262a9001000200090
:10077c00b7ff0700cae2a8002a003700c222a8006f
:10078c0010002000b2ff0700c262a9001000200078
:10079c00afff0700cae2a80022003700c222a9005e
:1007ac0010002000aaff0700c262a8001000200061
:1007bc00a7ff0700cae2a8001a003700c222a8004f
:1007cc0010002000a2ff070016003700c222a9006b
:1007dc00100020009eff0700c262a900100020003c
:1007ec009bff0700cae2a9001000200098ff070039
:1007fc00caa2a8000b003700c222a80010002000db
:10080c0093ff0700c262a9001000200090ff0700b0
:10081c00cae2a900100020008dff0700caa2a800a0
:10082c00000000000080fa00000006000200fa0040
:10083c00000f78001e007800e50f500023003200f6
:10084c00e50f50000c003c00e20f5000130032008a
:10085c00e20f500003003c00e10f50000b0032008f
:10086c0023003700e30f500010003200e40f50005b
:10087c00120032001e003700e70f50001900320042
:10088c00e70f500014003500190037004000070036
:10089c001000200077ff070015003700d500070077
:1008ac001000200073ff070011003700e70007005d
:1008bc00100020006fff07000d003700e600070056
:1008cc00100020006bff070009003700100020000b
:1008dc0068ff0700060037001000200065ff0700c6
:1008ec00030037001000200062ff0700000000002a
:1008fc000080fa00000006000000fa000002eb0085
:10090c00430b20000001eb00010a20000000eb006b
:10091c00df000700803e200056ff07000002eb00be
:10092c00430b200062042000a10520000000eb0016
:10093c00d7000700803e20004eff07000002eb00ae
:10094c00e3062000e2012000110420000000eb006f
:10095c00cf000700803e200046ff07000002eb009e
:10096c0053042000e20120008000eb000000eb00ab
:10097c00c7000700803e20003eff07000080fa0001
:10098c00000006000000fa000080fa0000000600db
:10099c000000fa000002eb00430b20000001eb000a
:1009ac00010a20000000eb00b9000700803e200087
:1009bc0030ff07000002eb00430b20000001eb00ae
:1009cc00010a2000400b2000b1000700803e2000ef
:1009dc0028ff07000002eb00430b200082022000de
:1009ec00a1052000400b2000a900070010002000ea
:1009fc0020ff07000080fa00000006000000fa004b
:100a0c000002eb00430b20000001eb00010a200068
:100a1c000000eb009e000700803e200015ff070041
:100a2c000002eb00c3032000e20120009101200032
:100a3c000000eb0096000700803821000dff070036
:100a4c000002eb00d3022000e20120009101200003
:100a5c000000eb008e0007004006200005ff070099
:100a6c000002eb00d3022000d2022000d1022000b1
:100a7c000000eb00860007005e0007000080fa0013
:100a8c00000006000000fa000002eb00430b2000ff
:100a9c000001eb00010a20000000eb007c000700c5
:100aac00803e2000f3fe07000002eb00430b200009
:100abc0062042000a10520000000eb007400070078
:100acc00803e2000ebfe07000002eb002308200014
:100adc00a2042000a10020000000eb006c00070025
:100aec00803e2000e3fe070058000700803e2000f7
:100afc00e0fe07000002eb00430b20006204200024
:100b0c00010520000000eb0061000700803e200082
:100b1c00d8fe07000002eb00430b20000001eb00a5
:100b2c00010a20000000eb00590007001000200013
:100b3c00d0fe07000080fa00000006000000fa005a
:100b4c000002eb00430b20000001eb00010a200027
:100b5c000000eb004e000700803e2000c5fe0700a1
:100b6c000002eb00e3062000c20320000105200078
:100b7c000000eb0046000700803e2000bdfe070091
:100b8c000002eb0053042000e20120008000eb0087
:100b9c000000eb003e000700803e2000b5fe070081
:100bac002a000700803e2000b2fe07000002eb0086
:100bbc004306200012042000a10520000000eb00d9
:100bcc0033000700803e2000aafe07000002eb0065
:100bdc00430b20000001eb00010a20000000eb0099
:100bec002b00070010002000a2fe07000080fa0076
:100bfc00000006000000fa000002eb00430b20008e
:100c0c00a2002000b10920000000eb00200007002a
:100c1c001000200097fe07000080fa00000006007c
:100c2c000000fa000002eb00430b2000a2002000a1
:100c3c00b1092000400b2000150007001000200017
:100c4c008cfe07000080fa00000006000000fa008d
:100c5c000080fa00000006000000fa000080fa0094
:100c6c00000006000000fa000002eb00a3052000c3
:100c7c00a2052000a1052000a0052000040007000b
:100c8c00100020007bfe07000080fa000000060028
:100c9c004600fa00601f9800711f98000227980008
:100cac001327980024279800600020005007980014
:100cbc00500020006007980060002000700798002a
:100ccc0060002000000f980060002000100f9800ba
:100cdc0000102000200f9800001a2200300f9800fe
:100cec00f00e2000400f9800f00f2000500f9800dd
:100cfc00f00f2000600f980000502000700f98003b
:100d0c00004c220000179800504920001017980042
:100d1c0050472000201798005048200030179800aa
:100d2c00b00c800040179800000d80005017980000
:100d3c00500d800060179800a00d8000701798006f
:100d4c00f00d8000001f9800ee1890005e009000df
:100d5c000088b900800078002e089000008f4000b9
:100d6c00fe1890006e0090000088b900800078009a
:100d7c003e08900000804000100798008e209000e4
:100d8c007e0090000088b900800078004e0890002a
:100d9c0000804000200798009e2090000e089000d4
:100dac000088b900800078005e0890000080400048
:100dbc0030079800ae2090001e0890000088b90003
:100dcc00800078006e08900000804000400798007a
:100ddc007e0890009e007800808f50000200340046
:100dec00fe089000010f78009e0090000e109000fd
:100dfc00808f5000020034008e1090001107980074
:100e0c00ae0090001e109000808f50000200340045
:100e1c009e10900021079800be0090002e109000ac
:100e2c00808f500002003400ae1090003107980003
:100e3c00ce0090003e109000808f500002003400d5
:100e4c00be109000410798004e1090001e0010003c
:100e5c00101f98009e0090005e10900000805000c3
:100e6c00201f9800ae0090006e1090000080500083
:100e7c00301f9800be0090007e1090000080500043
:100e8c00401f9800ce0090000e189000008050007b
:100e9c00501f98001e0037009e007800b00c800098
:100eac00808f5000020032001e1890002e000700a8
:100ebc009e009000000d8000808f500002003200d8
:100ecc002e1890003e000700ae009000500d8000e0
:100edc00808f5000020032003e1890004e00070038
:100eec00be009000a00d8000808f500002003200e8
:100efc004e1890005e000700ce009000f00d8000b0
:100f0c00808f5000020032005e1890006e000700c7
:100f1c009e007800b00c8000808f5000deff3a00fd
:100f2c009e009000000d8000808f5000daff3a0088
:100f3c00ae009000500d8000808f5000d6ff3a001c
:100f4c00be009000a00d8000808f5000d2ff3a00b0
:100f5c00ce009000f00d8000808f5000ceff3a0044
:100f6c000080fa00000006000600fa002007980036
:100f7c0010002000000f7800b00c800010079800c3
:100f8c002e0090000000e00006003d001e009000c6
:100f9c001e005000b00c880060002000b5fd07005a
:100fac00050037001e0090001e004000b00c8800a9
:100fbc0060002000affd07000080fa000000060072
:100fcc000600fa002007980010002000000f78009f
:100fdc00000d8000100798002e0090000000e0002b
:100fec0006003d001e0090001e005000000d880001
:100ffc00100020009ffd0700050037001e00900028
:10100c001e004000000d88001000200099fd070014
:10101c000080fa00000006000600fa002007980085
:10102c0010002000000f7800500d80001007980071
:10103c002e0090000000e00006003d001e00900015
:10104c001e005000500d88001000200089fd070084
:10105c00050037001e0090001e004000500d880057
:10106c001000200083fd07000080fa00000006003d
:10107c000600fa002007980010002000000f7800ee
:10108c00a00d8000100798002e0090000000e000da
:10109c0006003d001e0090001e005000a00d8800b0
:1010ac001000200073fd0700050037001e009000a3
:1010bc001e004000a00d8800100020006dfd0700f0
:1010cc000080fa00000006000600fa0020079800d5
:1010dc0010002000000f7800f00d80001007980021
:1010ec002e0090000000e00004003d001e00900067
:1010fc001e005000f00d8800030037001e00900009
:10110c001e004000f00d88000080fa000000060070
:10111c000e00fa006007980060002000100798008d
:10112c00500e2000200798005049200030079800ee
:10113c00b00c800040079800ee0090001e0090005c
:10114c000088b900800078002e009000008f4000cd
:10115c003e0090009e007800808f5000020034000a
:10116c00be009000010f78004e0090001e00100091
:10117c0050079800020037005e0090007aff0700cd
:10118c009e007800b00c8000808f5000faff3a006f
:10119c000080fa00000006000e00fa0060079800bc
:1011ac005000200010079800001a22002007980019
:1011bc006046220030079800000d80004007980020
:1011cc00ee0090001e0090000088b90080007800ae
:1011dc002e009000008f40003e0090009e00780092
:1011ec00808f500002003400be009000010f780088
:1011fc004e0090001e0010005007980002003700af
:10120c005e0090006eff07009e007800000d8000cd
:10121c00808f5000faff3a000080fa0000000600b0
:10122c000e00fa006007980060002000100798007c
:10123c00f00e20002007980050492000300798003d
:10124c00500d800040079800ee0090001e009000aa
:10125c000088b900800078002e009000008f4000bc
:10126c003e0090009e007800808f500002003400f9
:10127c00be009000010f78004e0090001e00100080
:10128c0050079800020037005e00900062ff0700d4
:10129c009e007800500d8000808f5000faff3a00bd
:1012ac000080fa00000006000e00fa0060079800ab
:1012bc006000200010079800000e20002007980006
:1012cc005049200030079800a00d8000400798007e
:1012dc00ee0090001e0090000088b900800078009d
:1012ec002e009000008f40003e0090009e00780081
:1012fc00808f500002003400be009000010f780077
:10130c004e0090001e00100050079800020037009d
:10131c005e00900056ff07009e007800a00d800034
:10132c00808f5000faff3a000080fa00000006009f
:10133c000e00fa006007980060002000100798006b
:10134c00f00f20002007980050472000300798002d
:10135c00f00d800040079800ee0090001e009000f9
:10136c000088b900800078002e009000008f4000ab
:10137c003e0090009e007800808f500002003400e8
:10138c00be009000010f78004e0090001e0010006f
:10139c0050079800020037005e0090004aff0700db
:1013ac009e007800f00d8000808f5000faff3a000c
:1013bc000080fa00000006000800fa00100020006f
:1013cc00000f7800000e20001007980050492000f4
:1013dc002007980000492000300798001e0090005c
:1013ec00b00c880010002000a2fc0700060037009b
:1013fc00b10c80001e00780000804000b00c88000a
:10140c00400120009bfc0700ae009000b00c800057
:10141c00808f5000f6ff3e0006003700b10c8000b4
:10142c001e00780000805000b00c880040012000a5
:10143c0090fc07009e009000b00c8000808f500044
:10144c00f6ff390006003700b10c80001e00780052
:10145c0000804000b00c8800e001200085fc0700f3
:10146c00be009000b00c8000808f5000f6ff3e0054
:10147c000080fa00000006000000fa0000002800be
:10148c00b01088001822ef001001200006010700a0
:10149c000000eb00f80007000028ef000000eb0054
:1014ac00cd0007000000eb00d70007008a20a90040
:1014bc009a20a8000080fa00000006000000fa0044
:1014cc00edff07000080fa00000006003600f8006f
:1014dc00809fbe00829fbe00849fbe00869fbe0080
:1014ec000200fa0000408000e20f50009a00320027
:1014fc00e20f500003003900e30f50008900320066
:10150c00a7003700b1108000004020000080600070
:10151c000000e00005003a00c1108000000220002d
:10152c00008060000000e0000a003200b110800072
:10153c0000082000008060000000e0002100320064
:10154c00c110800000202000008060000000e0003e
:10155c001c003200c0108000640060000000e0003d
:10156c000b003a00100020000f01070018e8b7002c
:10157c00100020000040880018c8bf000004e000e4
:10158c003800320080108000004f780036003700a1
:10159c000000eb0004010700204080000000e00088
:1015ac000500320020408000104078000080fb00d5
:1015bc00901088001782a8002000200000408800ae
:1015cc0029003700b110800000402000008060002e
:1015dc000000e00024003200c11080000002200056
:1015ec00008060000000e0001f003a00c010800086
:1015fc00640060000000e00004003a000a68ef009c
:10160c003000200000408800130037000ac8bf00db
:10161c000004e0000d0032000000eb00e2000700c7
:10162c00204080000000e0000500320020408000d7
:10163c00104078000080fb00901088001782a800f2
:10164c002000200000408800030037000a68ef00eb
:10165c00300020000040880080108000004f78008f
:10166c00010037000000000000408000e10f500036
:10167c004c003a00c1108000000220000080600085
:10168c000000e00049003200c1108000000420007e
:10169c00008060000000e0001e003a001040800056
:1016ac000000e0001700320081108000f00f2000d5
:1016bc00808f50000f003200a0408000811080000d
:1016cc00014178006186200082707800a040800083
:1016dc000000e800a0408800a0408000e50f50000a
:1016ec0004003400804080000000e8008040880046
:1016fc001428ef0010408000811080008140780099
:10170c000148780020002000a700070018e8b70067
:10171c002900370080108000004f780018c2a90003
:10172c0025003700300020009f00070018e8b700a4
:10173c0010c0b3000ae8b70018c8bf000004e000ee
:10174c000200320080108000004f78001000200052
:10175c000040880018003700c110800000002800ed
:10176c00008060000000e0000b003a000000eb007d
:10177c008d000700204080000000e0000d003200ca
:10178c0020408000104078000080fb009010880002
:10179c001782a800080037000028ef000600370069
:1017ac00ffff3700000000000300370000000000be
:1017bc0001003700000000008a20a9000080fa0018
:1017cc004f03be004f02be004f01be004f00be00d3
:1017dc003600f900004006000200fa00000f780005
:1017ec009e007800214088000080fa00000006006e
:1017fc000200fa00000f78001e007800f6ff0700c8
:10180c000080fa00000006000200fa00000f7800c9
:10181c009e007800114088000080fa00000006004d
:10182c000200fa00000f78001e007800f6ff070097
:10183c000080fa00000006000000fa002040800042
:10184c000080fa00000006000000fa00faff070012
:10185c000080fa00000006000000fa001040800032
:10186c000080fa00000006000000fa00faff0700f2
:10187c000080fa00000006000200fa00000f780059
:10188c009e007800e11088000080fa00000006003d
:10189c000200fa00000f78001e007800f6ff070027
:1018ac000080fa00000006000200fa00000f780029
:1018bc00f00720009e007800808f50000200360058
:1018cc001742a800010037001742a9000028ef00ba
:1018dc009e007800d11088000080fa0000000600fd
:1018ec000200fa00000f78001e007800eeff0700df
:1018fc000080fa00000006000000fa002040800082
:10190c000000e0000600320020408000104078000b
:10191c000080fb00901088001782a800010037009f
:10192c00000000000080fa00000006000000fa0031
:10193c00104080000000e000180032008110800090
:10194c00f00f2000808f50000f003200a04080006c
:10195c00811080000141780061862000827078003f
:10196c00a04080000000e800a0408800a04080005b
:10197c00e50f500004003400804080000000e800b7
:10198c00804088001428ef001040800081108000f7
:10199c008140780001487800010037000000000009
:1019ac000080fa00000006000200fa00000f780028
:1019bc001e007800e10f50000d003200e10f5000c6
:1019cc0003003900e20f50000f0032002e003700e8
:1019dc003140800060822000008040007eff0700c4
:1019ec00304080000000e8003040880026003700be
:1019fc000828ef0010c0b30017e8b7006081200082
:101a0c0081ff07002000370017c8bf000004e0006a
:101a1c0016003200404080000000e00008003a0050
:101a2c0016c8bf000080fb004800dd003040880075
:101a3c00404080000000e800404088001200370061
:101a4c0040408000e10f50000e003a0016c8bf0065
:101a5c008080fb0030408000010070003040880026
:101a6c000828ef001768ef000700370030408000af
:101a7c00628120001241780061822000827078001f
:101a8c00010037000000000010c0b3000080fa0015
:101a9c00000006000000fa0060002100c00d880064
:101aac00ba21ef0000712200e00d880050482000a0
:101abc00f00d8800c021ef00c00d800000407800c0
:101acc00674060000080fb00d04088000080fa0076
:101adc00000006000000fa00eeff07000080fa008c
:101aec00000006000000fa004104800000202000e5
:101afc00008060000000e000010032008920a90095
:101b0c000080fa00000006000000fa00f5ff070054
:101b1c000080fa00000006000000fa00d0408000af
:101b2c0000407800674060000080fb0067006000a8
:101b3c00c20d800081ff2f00810061000100700048
:101b4c00c00d88000080fa00000006000000fa00ba
:101b5c00f1ff07000080fa00000006000000fa0008
:101b6c00c00d80000000a1000010a1000020a10009
:101b7c00c00d88000080fa00000006000000fa008a
:101b8c00f6ff07000080fa00000006000200fa00d1
:101b9c00000f78009e007800f10d88000080fa009c
:101bac00000006000200fa00000f78001e0078000a
:101bbc00f6ff07000080fa00000006000400fa009f
:101bcc00000f7800110798009e007800f10d880036
:101bdc009e009000e10d88000080fa0000000600d5
:101bec000400fa00000f7800110798009e00900086
:101bfc001e007800f1ff07000080fa0000000600cc
:101c0c000400fa00000f7800110798009e0078007d
:101c1c00f10d88009e009000e10d88000080fa0014
:101c2c00000006000400fa00000f7800110798006d
:101c3c009e0090001e007800f1ff07000080fa0063
:101c4c00000006000400fa00000f7800110798004d
:101c5c009e007800f10d88009e009000e10d880038
:101c6c000080fa00000006000400fa00000f780063
:101c7c00110798009e0090001e007800f1ff0700ed
:101c8c000080fa00000006000000fa00400480000a
:101c9c004900de00614060000080fb0000f0a700fe
:101cac000000ea000000ea004f00de00004078006f
:101cbc000080fa00000006000000fa00f2ff0700a6
:101ccc000080fa00000006000400fa0010079800db
:101cdc001e009000e10f50000f003200e10f500089
:101cec0003003900e20f5000150032001e003700cf
:101cfc00c00d80004400de00614060000080fb00ed
:101d0c0000f0a7000000ea000000ea004f00de002f
:101d1c00004f780014003700c00d80004500de0035
:101d2c00614060000080fb0000f0a7000000ea00aa
:101d3c000000ea004f00de00004f78000a00370078
:101d4c00c00d80004600de00614060000080fb009a
:101d5c0000f0a7000000ea000000ea004f00de00df
:101d6c00004f7800000000001e4078000080fa0050
:101d7c00000006000200fa00000f78001e00780038
:101d8c00d1ff07000080fa00000006000200fa00f4
:101d9c00000f78001e007800e10f500007003200a1
:101dac00e10f500003003900e20f50000500320033
:101dbc0006003700b881a90004003700b8a1a900bb
:101dcc0002003700b8c1a900000000000080fa0032
:101ddc00000006000200fa00000f78001e007800d8
:101dec00eaff07000080fa00000006000000fa007d
:101dfc00bac1a8000080fa00000006000000fa003a
:101e0c00d00d80004600de00614060000080fb00c9
:101e1c0000f0a7000000ea000000ea004f00de001e
:101e2c00004078000080fa00000006000000fa0074
:101e3c00f2ff07000080fa00000006000000fa0024
:101e4c00bac1a9000080fa00000006000000fa00e8
:101e5c00faff07000080fa00000006000000fa00fc
:101e6c0060002100700d8800b021ef00007122008d
:101e7c00900d8800401b2000a00d8800b621ef00bb
:101e8c00700d800000407800674060000080fb000f
:101e9c00e04088000080fa00000006000000fa0014
:101eac00eeff07000080fa00000006000000fa00b8
:101ebc003104800000402000008060000000e00041
:101ecc00010032008740a9000080fa0000000600e3
:101edc000000fa00f5ff07000080fa000000060081
:101eec000000fa00e040800000407800674060008d
:101efc000080fb0067006000720d800081ff2f00e6
:101f0c008100610001007000700d88000080fa00f3
:101f1c00000006000000fa00f1ff07000080fa0044
:101f2c00000006000000fa00700d80000000a10007
:101f3c000010a1000020a100700d88000080fa00a4
:101f4c00000006000000fa00f6ff07000080fa000f
:101f5c00000006000200fa00000f78009e007800d6
:101f6c00a10d88000080fa00000006000200fa00b3
:101f7c00000f78001e007800f6ff07000080fa00c2
:101f8c00000006000400fa00000f7800110798000a
:101f9c009e007800a10d88009e009000910d880095
:101fac000080fa00000006000400fa00000f780020
:101fbc00110798009e0090001e007800f1ff0700aa
:101fcc000080fa00000006000400fa00000f780000
:101fdc00110798009e007800a10d88009e009000cb
:101fec00910d88000080fa00000006000400fa0041
:101ffc00000f7800110798009e0090001e007800da
:10200c00f1ff07000080fa00000006000400fa004f
:10201c00000f7800110798009e007800a10d880031
:10202c009e009000910d88000080fa0000000600d0
:10203c000400fa00000f7800110798009e00900031
:10204c001e007800f1ff07000080fa000000060077
:10205c000000fa00300480004a00de00614060009d
:10206c000080fb0000f0a7000000ea000000ea007e
:10207c004f00de00004078000080fa0000000600ef
:10208c000000fa00f2ff07000080fa0000000600d2
:10209c000400fa00100798001e009000e10f500099
:1020ac000f003200e10f500003003900e20f500026
:1020bc00150032001e003700700d80004400de0059
:1020cc00614060000080fb0000f0a7000000ea0007
:1020dc000000ea004f00de00004f780014003700cb
:1020ec00700d80004500de00614060000080fb0048
:1020fc0000f0a7000000ea000000ea004f00de003c
:10210c00004f78000a003700700d80004600de009a
:10211c00614060000080fb0000f0a7000000ea00b6
:10212c000000ea004f00de00004f780000000000c5
:10213c001e4078000080fa00000006000200fa0041
:10214c00000f78001e007800d1ff07000080fa0015
:10215c00000006000200fa00000f78001e00780054
:10216c00e10f500007003200e10f5000030039006e
:10217c00e20f50000500320006003700ae81a900c6
:10218c0004003700aea1a90002003700aec1a900bf
:10219c00000000000080fa00000006000200fa00b7
:1021ac00000f78001e007800eaff07000080fa009c
:1021bc00000006000000fa00b0c1a8000080fa0080
:1021cc00000006000000fa00800d80004600de00d2
:1021dc00614060000080fb0000f0a7000000ea00f6
:1021ec000000ea004f00de00004078000080fa009a
:1021fc00000006000000fa00f2ff07000080fa0061
:10220c00000006000000fa00b0c1a9000080fa002e
:10221c00000006000000fa00faff07000080fa0038
:10222c00000006000000fa0060002100200d88006c
:10223c00a621ef0000712200400d880050492000bb
:10224c00500d8800ac21ef00200d8000004078007c
:10225c00674060000080fb00f04088000080fa00be
:10226c00000006000000fa00eeff07000080fa00f4
:10227c00000006000000fa0031048000002020005d
:10228c00008060000000e000010032008720a900ff
:10229c000080fa00000006000000fa00f5ff0700bd
:1022ac000080fa00000006000000fa00f0408000f8
:1022bc0000407800674060000080fb006700600011
:1022cc00220d800081ff2f00810061000100700051
:1022dc00200d88000080fa00000006000000fa00c3
:1022ec00f1ff07000080fa00000006000000fa0071
:1022fc00200d80000000a1000010a1000020a10012
:10230c00200d88000080fa00000006000000fa0092
:10231c00f6ff07000080fa00000006000200fa0039
:10232c00000f78009e007800510d88000080fa00a4
:10233c00000006000200fa00000f78001e00780072
:10234c00f6ff07000080fa00000006000400fa0007
:10235c00000f7800110798009e007800510d88003e
:10236c009e009000410d88000080fa0000000600dd
:10237c000400fa00000f7800110798009e009000ee
:10238c001e007800f1ff07000080fa000000060034
:10239c000400fa00000f7800110798009e007800e6
:1023ac00510d88009e009000410d88000080fa00bd
:1023bc00000006000400fa00000f780011079800d6
:1023cc009e0090001e007800f1ff07000080fa00cc
:1023dc00000006000400fa00000f780011079800b6
:1023ec009e007800510d88009e009000410d8800e1
:1023fc000080fa00000006000400fa00000f7800cc
:10240c00110798009e0090001e007800f1ff070055
:10241c000080fa00000006000000fa003004800082
:10242c004900de00614060000080fb0000f0a70066
:10243c000000ea000000ea004f00de0000407800d7
:10244c000080fa00000006000000fa00f2ff07000e
:10245c000080fa00000006000400fa001007980043
:10246c001e009000e10f50000f003200e10f5000f1
:10247c0003003900e20f5000150032001e00370037
:10248c00200d80004400de00614060000080fb00f5
:10249c0000f0a7000000ea000000ea004f00de0098
:1024ac00004f780014003700200d80004500de003e
:1024bc00614060000080fb0000f0a7000000ea0013
:1024cc000000ea004f00de00004f78000a003700e1
:1024dc00200d80004600de00614060000080fb00a3
:1024ec0000f0a7000000ea000000ea004f00de0048
:1024fc00004f7800000000001e4078000080fa00b9
:10250c00000006000200fa00000f78001e007800a0
:10251c00d1ff07000080fa00000006000200fa005c
:10252c00000f78001e007800e10f50000700320009
:10253c00e10f500003003900e20f5000050032009b
:10254c0006003700a481a90004003700a4a1a9004b
:10255c0002003700a4c1a900000000000080fa00ae
:10256c00000006000200fa00000f78001e00780040
:10257c00eaff07000080fa00000006000000fa00e5
:10258c00a6c1a8000080fa00000006000000fa00b6
:10259c00300d80004600de00614060000080fb00d2
:1025ac0000f0a7000000ea000000ea004f00de0087
:1025bc00004078000080fa00000006000000fa00dd
:1025cc00f2ff07000080fa00000006000000fa008d
:1025dc00a6c1a9000080fa00000006000000fa0065
:1025ec00faff07000080fa00000006000000fa0065
:1025fc0060002000d00c88009c21ef0000e2240039
:10260c00f00c8800d0212200000d8800a221ef00e0
:10261c00d00c800000407800674060000080fb0018
:10262c00004188000080fa00000006000000fa005b
:10263c00eeff07000080fa00000006000000fa0020
:10264c002104800000042000008060000000e000f5
:10265c000100320084c0a9000080fa0000000600ce
:10266c000000fa00f5ff07000080fa0000000600e9
:10267c000000fa00004180000040780067406000d4
:10268c000080fb0067006000d20c800081ff2f00ef
:10269c008100610001007000d00c88000080fa00fd
:1026ac00000006000000fa00f1ff07000080fa00ad
:1026bc00000006000000fa00d00c80000000a10011
:1026cc000010a1000020a100d00c88000080fa00ae
:1026dc00000006000000fa00f6ff07000080fa0078
:1026ec00000006000200fa00000f78009e0078003f
:1026fc00010d88000080fa00000006000200fa00bc
:10270c00000f78001e007800f6ff07000080fa002a
:10271c00000006000400fa00000f78001107980072
:10272c009e007800010d88009e009000f10c88003e
:10273c000080fa00000006000400fa00000f780088
:10274c00110798009e0090001e007800f1ff070012
:10275c000080fa00000006000400fa00000f780068
:10276c00110798009e007800010d88009e009000d3
:10277c00f10c88000080fa00000006000400fa004a
:10278c00000f7800110798009e0090001e00780042
:10279c00f1ff07000080fa00000006000400fa00b8
:1027ac00000f7800110798009e007800010d88003a
:1027bc009e009000f10c88000080fa0000000600da
:1027cc000400fa00000f7800110798009e0090009a
:1027dc001e007800f1ff07000080fa0000000600e0
:1027ec000000fa00200480004600de00614060001a
:1027fc000080fb0000f0a7000000ea000000ea00e7
:10280c004f00de00004078000080fa000000060057
:10281c000000fa00f2ff07000080fa00000006003a
:10282c000400fa00100798001e009000e10f500001
:10283c000f003200e10f500003003900e20f50008e
:10284c00150032001e003700d00c80004400de0062
:10285c00614060000080fb0000f0a7000000ea006f
:10286c000000ea004f00de00004f78001400370033
:10287c00d00c80004500de00614060000080fb0051
:10288c0000f0a7000000ea000000ea004f00de00a4
:10289c00004f78000a003700d00c80004600de00a4
:1028ac00614060000080fb0000f0a7000000ea001f
:1028bc000000ea004f00de00004f7800000000002e
:1028cc001e4078000080fa00000006000200fa00aa
:1028dc00000f78001e007800d1ff07000080fa007e
:1028ec00000006000200fa00000f78001e007800bd
:1028fc00e10f500007003200e10f500003003900d7
:10290c00e20f500005003200060037009a81a90042
:10291c00040037009aa1a900020037009ac1a9004f
:10292c00000000000080fa00000006000200fa001f
:10293c00000f78001e007800eaff07000080fa0004
:10294c00000006000000fa009cc1a8000080fa00fc
:10295c00000006000000fa00e00c80004600de00db
:10296c00614060000080fb0000f0a7000000ea005e
:10297c000000ea004f00de00004078000080fa0002
:10298c00000006000000fa00f2ff07000080fa00c9
:10299c00000006000000fa009cc1a9000080fa00ab
:1029ac00000006000000fa00faff07000080fa00a1
:1029bc00000006000000fa0060002100800c880076
:1029cc009221ef0000712200a00c88000010200062
:1029dc00b00c88009821ef00800c8000004078003b
:1029ec00674060000080fb00104188000080fa0006
:1029fc00000006000000fa00eeff07000080fa005d
:102a0c00000006000000fa00200480006400600052
:102a1c000000e000010032008440a9000080fa00b0
:102a2c00000006000000fa00f6ff07000080fa0024
:102a3c00000006000000fa00104180000040780001
:102a4c00674060000080fb0067006000820c800023
:102a5c0081ff2f008100610001007000800c880054
:102a6c000080fa00000006000000fa00f1ff0700e9
:102a7c000080fa00000006000000fa00800c8000c4
:102a8c000000a1000010a1000020a100800c880013
:102a9c000080fa00000006000000fa00f6ff0700b4
:102aac000080fa00000006000200fa00000f780017
:102abc009e007800b10c88000080fa00000006002f
:102acc000200fa00000f78001e007800f6ff0700e5
:102adc000080fa00000006000400fa00000f7800e5
:102aec00110798009e007800b10c88009e009000a1
:102afc00a10c88000080fa00000006000400fa0017
:102b0c00000f7800110798009e0090001e007800be
:102b1c00f1ff07000080fa00000006000400fa0034
:102b2c00000f7800110798009e007800b10c880007
:102b3c009e009000a10c88000080fa0000000600a6
:102b4c000400fa00000f7800110798009e00900016
:102b5c001e007800f1ff07000080fa00000006005c
:102b6c000400fa00000f7800110798009e0078000e
:102b7c00b10c88009e009000a10c88000080fa0027
:102b8c00000006000400fa00000f780011079800fe
:102b9c009e0090001e007800f1ff07000080fa00f4
:102bac00000006000000fa00200480004200de0055
:102bbc00614060000080fb0000f0a7000000ea000c
:102bcc000000ea004f00de00004078000080fa00b0
:102bdc00000006000000fa00f2ff07000080fa0077
:102bec00000006000400fa00100798001e00900078
:102bfc00e10f50000f003200e10f500003003900cc
:102c0c00e20f5000150032001e003700800c8000cf
:102c1c004400de00614060000080fb0000f0a70073
:102c2c000000ea000000ea004f00de00004f7800d0
:102c3c0014003700800c80004500de00614060000d
:102c4c000080fb0000f0a7000000ea000000ea0092
:102c5c004f00de00004f78000a003700800c800027
:102c6c004600de00614060000080fb0000f0a70021
:102c7c000000ea000000ea004f00de00004f780080
:102c8c00000000001e4078000080fa0000000600e2
:102c9c000200fa00000f78001e007800d1ff070038
:102cac000080fa00000006000200fa00000f780015
:102cbc001e007800e10f500007003200e10f5000b9
:102ccc0003003900e20f5000050032000600370007
:102cdc009081a9000400370090a1a90002003700e0
:102cec0090c1a900000000000080fa00000006005e
:102cfc000200fa00000f78001e007800eaff0700bf
:102d0c000080fa00000006000000fa0092c1a80042
:102d1c000080fa00000006000000fa00900c800011
:102d2c004600de00614060000080fb0000f0a70060
:102d3c000000ea000000ea004f00de0000407800ce
:102d4c000080fa00000006000000fa00f2ff070005
:102d5c000080fa00000006000000fa0092c1a900f1
:102d6c000080fa00000006000000fa00faff0700dd
:102d7c000080fa00000006000000fa0000002800a5
:102d8c00900888000a21ef0000fa200070088800e3
:102d9c008500a9009500a800008720008040eb006a
:102dac00014878000080fa00000006000000fa00dc
:102dbc00f1ff07000080fa00000006003600f80062
:102dcc00809fbe00829fbe00849fbe00869fbe0077
:102ddc000000fa003e000700108720001040780029
:102dec008040e80010872000014878000087200010
:102dfc0011c0b300014878008500a9000080fa00da
:102e0c004f03be004f02be004f01be004f00be007c
:102e1c003600f900004006000200fa00000f7800ae
:102e2c009e00780071088800008720008040eb002d
:102e3c00014878000080fa00000006000200fa0049
:102e4c00000f78001e007800f3ff07000080fa00e6
:102e5c00000006000000fa00700880000080fa00f4
:102e6c00000006000000fa00faff07000080fa00dc
:102e7c00000006000200fa00000f78009e007800a7
:102e8c0051088800008720008040eb000148780042
:102e9c000080fa00000006000200fa00000f780023
:102eac001e007800f3ff07000080fa000000060007
:102ebc000000fa00500880000080fa0000000600b4
:102ecc000000fa00faff07000080fa00000006007c
:102edc000000fa00604080000000e80060408800bc
:102eec000080fa00000006000000fa0000872000b5
:102efc008040eb00014878009500a80013e1a80081
:102f0c000080fa00000006000000fa00f6ff07003f
:102f1c000080fa00000006000000fa0013e1a9008e
:102f2c009500a9000080fa00000006000000fa00dd
:102f3c00f9ff07000080fa00000006000200fa000a
:102f4c0000872000104f78001e4078000004e0003d
:102f5c0003003200008720008040eb00014878001d
:102f6c001e4078000080fa00000006000000fa0005
:102f7c00f2ff07000080fa00000006000000fa00d3
:102f8c0010872000104078000080fa000000060036
:102f9c000000fa00f9ff07000080fa0000000600ac
:102fac000000fa00108720008040eb0001487800f8
:102fbc000080fa00000006000000fa00f8ff07008d
:102fcc000080fa00000006000000fa000001280052
:102fdc00200888000021ef000071220010088800f2
:102fec008460a9009460a800e08620008040eb007b
:102ffc00014878000080fa00000006000000fa008a
:10300c00f1ff07000080fa00000006003600f8000f
:10301c00809fbe00829fbe00849fbe00869fbe0024
:10302c000000fa003e000700f086200010407800f7
:10303c008040e800f086200001487800e0862000ff
:10304c0011c0b300014878008460a9000080fa0028
:10305c004f03be004f02be004f01be004f00be002a
:10306c003600f900004006000200fa00000f78005c
:10307c009e00780011088800e08620008040eb005c
:10308c00014878000080fa00000006000200fa00f7
:10309c00000f78001e007800f3ff07000080fa0094
:1030ac00000006000000fa00100880000080fa0002
:1030bc00000006000000fa00faff07000080fa008a
:1030cc00000006000200fa00000f78009e00780055
:1030dc0001088800e08620008040eb000148780061
:1030ec000080fa00000006000200fa00000f7800d1
:1030fc001e007800f3ff07000080fa0000000600b5
:10310c000000fa00000880000080fa0000000600b1
:10311c000000fa00faff07000080fa000000060029
:10312c000000fa000080fa00000006000000fa001f
:10313c00e08620008040eb00014878009460a800f5
:10314c0005e1a8000080fa00000006000000fa006b
:10315c00f6ff07000080fa00000006000000fa00ed
:10316c0005e1a9009460a9000080fa0000000600a7
:10317c000000fa00f9ff07000080fa0000000600ca
:10318c000200fa00e0862000104f78001e40780004
:10319c000004e00003003200e08620008040eb00d9
:1031ac00014878001e4078000080fa0000000600fc
:1031bc000000fa00f2ff07000080fa000000060091
:1031cc000000fa00f0862000104078000080fa0021
:1031dc00000006000000fa00f9ff07000080fa006a
:1031ec00000006000000fa00f08620008040eb0092
:1031fc00014878000080fa00000006000000fa0088
:10320c00f8ff07000080fa00000006000000fa003a
:10321c0000012800800888000621ef0000e224004d
:10322c0060088800c08620008040eb0001487800d0
:10323c000080fa00000006000000fa00f3ff07000f
:10324c000080fa00000006000000fa002104800053
:10325c0000082000008060000000e000090032003f
:10326c00d0862000104078008040e800d0862000f6
:10327c0001487800c086200011c0b30001487800d6
:10328c0084e0a9000080fa00000006000000fa00ab
:10329c00edff07000080fa00000006000200fa00b3
:1032ac00000f78009e00780061088800c08620001e
:1032bc008040eb00014878000080fa000000060016
:1032cc000200fa00000f78001e007800f3ff0700e0
:1032dc000080fa00000006000000fa006008800080
:1032ec000080fa00000006000000fa00faff070058
:1032fc000080fa00000006000200fa00000f7800bf
:10330c009e00780031088800c08620008040eb00c9
:10331c00014878000080fa00000006000200fa0064
:10332c00000f78001e007800f3ff07000080fa0001
:10333c00000006000000fa00300880000080fa004f
:10334c00000006000000fa00faff07000080fa00f7
:10335c00000006000000fa00c08620008040eb0050
:10336c000148780011e1a8000080fa000000060076
:10337c000000fa00f7ff07000080fa0000000600ca
:10338c000000fa0011e1a9000080fa00000006001c
:10339c000000fa00faff07000080fa0000000600a7
:1033ac000200fa00c0862000104f78001e40780002
:1033bc000004e00003003200c08620008040eb00d7
:1033cc00014878001e4078000080fa0000000600da
:1033dc000000fa00f2ff07000080fa00000006006f
:1033ec000000fa00d0862000104078000080fa001f
:1033fc00000006000000fa00f9ff07000080fa0048
:10340c00000006000000fa00d08620008040eb008f
:10341c00014878000080fa00000006000000fa0065
:0c342c00f8ff07000080fa000000060016
:020000040000fa
:10343800260800004000000002000000ffffff0017
:10344800ffffff00ffffff00ffffff00ffffff0080
:10345800ffffff00ffffff00ffffff00ffffff0070
:10346800ffffff00ffffff00ffffff00ffffff0060
:10347800ffffff00ffffff00ffffff00ffffff0050
:10348800ffffff00ffffff00ffffff00ffffff0040
:10349800ff000000000800000c0000000000000011
:1034a800160800000400000002000000aa01010044
:1034b800000000001a0800000200000000000000e0
:1034c8001c08000002000000000000001e080000a8
:1034d80002000000000000002008000002000000b8
:1034e80000000000220800000200000000000000a8
:1034f8006c08000002000000000000006e080000d8
:103508000200000000000000700800000200000037
:10351800000000006608000006000000000000002f
:103528000c0800000a000000000000002408000049
:10353800020000000200000001000000000000007e
:020000040000fa
:103548000000fa00a001200020168800500020008a
:1035580000168800001b200060168800f02020005c
:103568004016880030e3200060198800113a800076
:10357800f00b20000081600060042000710520002d
:1035880023742000804978008149780082497800b6
:103598005136800000fe2f00008060006001b300fb
:1035a8005036880051368000f00f2e008080600071
:1035b80000502100010070005036880061368000fc
:1035c800f00f2e0080806000004021000100700094
:1035d800603688007136800000fe2f000080600091
:1035e8003001b3007036880071368000f00f2e006d
:1035f8008080600000202100010070007036880083
:10360800113a8000000420000101700060042000cd
:1036180071052000237420008049780081497800d2
:10362800824978000080fa00000006000000fa00d5
:1036380010000700c2ff0700130007008ff70700fc
:1036480062fe0700f2fe0700ccfd07000080fa00ca
:10365800000006000000fa00d7fc0700e4fb0700a2
:10366800f1fa0700fef907000bf907000080fa00dd
:10367800000006000000fa0000002300203a88003d
:103688000080fa00000006000000fa00e005800053
:103698000040a0000050a1000060a100e0058800e3
:1036a8002005800000c0a00000d0a10000e0a1001b
:1036b80020058800400580000000a0000010a1003f
:1036c8000020a100400588000080fa0000000600e4
:020000040000fa
:020000040001f9
:0457f000ffff0000b7
:020000040000fa
:020000040001f9
:0457f400fffc0000b6
:020000040000fa
:020000040001f9
:0457f8009ff8000016
:020000040000fa
:020000040001f9
:0457fc007f3f0000eb
:00000001FF
